:0A0289008F088D091202AD0202BCBD
:0A0293008F088D091202B20202C1A9
:0A029D008F088D091202B20202BCA4
:0602A7001202B70202C6BC
:0800030012026112000E80FBE5
:0502AD00C291D2942271
:0502B200D291C294226C
:0502B700C291C2942277
:0502BC00D293C2942260
:0502C100C293D294225B
:0502C600C293C2942266
:100261005389F0438901758AA4758CFFC28DD28CA4
:07027100D2A9D2AFC2B922ED
:03000B00020220CE
:10022000C0E0C0D0758AA4758CFF050A050BE50AED
:10023000D395085004D2908002C290E50BD3950963
:100240005004D2958002C295E50AC39464400375B8
:100250000A00E50BC394644003750B00D0D0D0E0D6
:01026000326B
:0302CB00010C0023
:10000E0020B31220B40F30B50C20B60920B70675F8
:10001E000C010200D920B31230B40F20B50C20B65B
:10002E000920B706750C020200D920B31220B40FB6
:10003E0020B50C30B60920B706750C030200D93076
:10004E00B31120B40E20B50B20B60820B705750CE1
:10005E0004807820B31120B40E20B50B20B60830E2
:10006E00B705750C05806430B30B30B40820B705A6
:10007E00750C06805620B30B30B60830B705750CDC
:10008E0007804830B30E30B40B30B50830B60520BB
:10009E00B702802020B30E30B40B30B50830B60551
:1000AE0030B702800F30B31130B40E30B50B30B60E
:1000BE000830B705750C08801220B30F20B40C2041
:1000CE00B50920B60620B703750C09E50C14B40962
:1000DE000040030201939000F275F003A4C583253E
:1000EE00F0C5837302010D020111020119020123F1
:1000FE0002013202014102014F02015C02018B7DBD
:10010E001980027D237C007F1480067D197C007F80
:10011E00237E00806D7D3C7C007F147E0012028960
:10012E0030B5FD227D197C007F3C7E0012028930A5
:10013E00B5FD227D647C00E4FFFE12028930B5FD20
:10014E0022E4FDFC7F64FE12028930B5FD2212020C
:10015E00A77F017E00120278E4FDFCFFFE120289E9
:10016E007FE87E031202781202A77FE87E03120256
:10017E0078E4FDFCFFFE12029D30B5FD22E4FDFC8D
:06018E00FFFE12028922AF
:10027800EF4E600B007D027CC7DCFEDDFC80F1EFF9
:010288002253
:0300000002019466
:0C019400787FE4F6D8FD75810C0201DBD9
:1001A000020003E493A3F8E493A34003F68001F272
:1001B00008DFF48029E493A3F85407240CC8C33360
:1001C000C4540F4420C8834004F456800146F6DF2F
:1001D000E4800B01020408102040809002CBE47EF2
:1001E000019360BCA3FF543F30E509541FFEE49324
:1001F000A360010ECF54C025E060A840B8E493A3EB
:10020000FAE493A3F8E493A3C8C582C8CAC583CA15
:10021000F0A3C8C582C8CAC583CADFE9DEE780BECD
:0102CE00002F
:00000001FF
