:0A0387008F0A8D0B1203AF0203BEB4
:0A0391008F0A8D0B1203B40203C3A0
:0A039B008F0A8D0B1203B40203BE9B
:0A03A5008F0A8D0B1203AF0203C391
:060003001203B90203C85C
:0B037C0012034912033112036F80FBD3
:0503AF00C291D294226E
:0503B400D291C2942269
:0503B900C291C2942274
:0503BE00D293C294225D
:0503C300C293D2942258
:0503C800C293C2942263
:100349005389F0438901758AA4758CFFC28DD28CBB
:07035900D2A9D2AFC2B92204
:03000B00020238B6
:10023800C0E0C0D0758AA4758CFF050C050D0508B3
:10024800E50CD3950A5004D2908002C290E50DD3F4
:10025800950B5004D2958002C295E50CC394644076
:1002680003750C00E50DC394644003750D00E508A3
:10027800C394C84003750800E508C395095004D223
:0A028800808002C280D0D0D0E032A6
:03001F00011000CD
:1000260030B31230B40F20B50C30B60930B70675B0
:1000360010010200F130B31220B40F30B50C30B607
:100046000930B7067510020200F130B31230B40F52
:1000560030B50C20B60930B7067510030200F12042
:10006600B31130B40E30B50B30B60830B705751085
:1000760004807830B31130B40E30B50B30B608209A
:10008600B705751005806420B30B20B40830B7059A
:10009600751006805630B30B20B60820B7057510CC
:1000A60007804820B30E20B40B20B50820B60530D3
:1000B600B702802030B30E20B40B20B50820B60559
:1000C60030B702800F20B31120B40E20B50B20B636
:1000D6000820B705751008801230B30F30B40C3005
:1000E600B50930B60630B703751009E51014B40922
:1000F6000040030201AB90010A75F003A4C58325F5
:10010600F0C5837302012502012902013102013B78
:1001160002014A0201590201670201740201A37D2C
:100126001980027D237C007F1480067D197C007F68
:10013600237E00806D7D3C7C007F147E0012038749
:1001460030B5FD227D197C007F3C7E00120387308E
:10015600B5FD227D647C00E4FFFE12038730B5FD09
:1001660022E4FDFC7F64FE12038730B5FD221200F7
:10017600037F017E0012000EE4FDFCFFFE120387E2
:100186007FE87E0312000E1200037FE87E03120052
:100196000EE4FDFCFFFE12039B30B5FD22E4FDFCE0
:0601A600FFFE1203872298
:10000E00EF4E600B007D027CC7DCFEDDFC80F1EF65
:01001E0022BF
:10029200EF24CEB4080050519002A875F003A4C513
:1002A2008325F0C583730202C00202EB0202CB0275
:1002B20002E10202CB0202E40202D60202E87D2D32
:1002C2007C007F287E000203877D2D7C007F287EB4
:1002D2000002039B7D2D7C007F287E000203910299
:0A02E2000003750E0122E4F50E2260
:030023000202ECEA
:1002EC00C0E0C0F0C083C082C0D075D000C000C0D8
:1002FC0001C002C003C004C005C006C00712000341
:10030C00C29885990FAF0F120292D007D006D00574
:10031C00D004D003D002D001D000D0D0D082D08372
:05032C00D0F0D0E0322A
:10033100E4F587759850758920758BFD758DFDC223
:08034100ABD28ED2AFD2AC2288
:0E036000EF4E6009007D061DED60F580FAEF9E
:01036E00226C
:0D036F00E4F5087509197FF47E0102000E07
:030000000201AC4E
:0C01AC00787FE4F6D8FD7581100201F3A5
:1001B80002037CE493A3F8E493A34003F68001F2DE
:1001C80008DFF48029E493A3F85407240CC8C33348
:1001D800C4540F4420C8834004F456800146F6DF17
:1001E800E4800B010204081020408090001FE47E88
:1001F800019360BCA3FF543F30E509541FFEE4930C
:10020800A360010ECF54C025E060A840B8E493A3D2
:10021800FAE493A3F8E493A3C8C582C8CAC583CAFD
:10022800F0A3C8C582C8CAC583CADFE9DEE780BEB5
:0100220000DD
:00000001FF
