:0A0742008F088D0912076A0207797B
:0A074C008F088D0912076F02077E67
:0A0756008F088D0912076F02077962
:0A0760008F088D0912076A02077E58
:06000300120774020783DE
:100718001207011206E9E510B401FB12039180F6F5
:05076A00C291D29422AF
:05076F00D291C29422AA
:05077400C291C29422B5
:05077900D293C294229E
:05077E00C293D2942299
:05078300C293C29422A4
:100701005389F0438901758AA4758CFFC28DD28CFF
:07071100D2A9D2AFC2B92248
:03000B000206A842
:1006A800C0E0C0D0758AA4758CFF050A050BE50A61
:1006B800D395085004D2908002C290E50BD39509D7
:1006C8005004D2958002C295E50AC394644003752C
:1006D8000A00E50BC394644003750B00D0D0D0E04A
:0106E80032DF
:03073700011200AC
:1003910020B31220B40F30B50C20B60920B7067572
:1003A100120102045C20B31230B40F20B50C20B648
:1003B1000920B70675120202045C20B31220B40FA3
:1003C10020B50C30B60920B70675120302045C3063
:1003D100B31120B40E20B50B20B60820B705751255
:1003E10004807820B31120B40E20B50B20B608305C
:1003F100B705751205806430B30B30B40820B7051A
:10040100751206805620B30B30B60830B705751249
:1004110007804830B30E30B40B30B50830B6052034
:10042100B702802020B30E30B40B30B50830B605CA
:1004310030B702800F30B31130B40E30B50B30B687
:100441000830B705751208801220B30F20B40C20B4
:10045100B50920B60620B703751209E51214B409CF
:1004610000400302051690047575F003A4C58325A9
:10047100F0C5837302049002049402049C0204A652
:100481000204B50204C40204D20204DF02050E7D97
:100491001980027D237C007F1480067D197C007FFA
:1004A100237E00806D7D3C7C007F147E001207421C
:1004B10030B5FD227D197C007F3C7E001207423061
:1004C100B5FD227D647C00E4FFFE12074230B5FDDC
:1004D10022E4FDFC7F64FE12074230B5FD221200CA
:1004E100037F017E0012000EE4FDFCFFFE120742B5
:1004F1007FE87E0312000E1200037FE87E031200E4
:100501000EE4FDFCFFFE12075630B5FD22E4FDFCB2
:06051100FFFE120742226A
:10000E00EF4E600B007D027CC7DCFEDDFC80F1EF65
:01001E0022BF
:03073A00011000AB
:10060900EF24CEB40800505190061F75F003A4C51D
:100619008325F0C583730206370206620206420289
:10062900065802064202065B02064D02065F7D2D50
:100639007C007F287E000207427D2D7C007F287E7A
:10064900000207567D2D7C007F287E0002074C02A0
:0A065900000375100122E4F51022E1
:030023000206636F
:10066300C0E0C0F0C083C082C0D075D000C000C05D
:1006730001C002C003C004C005C006C007120003C6
:10068300C298859911AF11120609D007D006D0057B
:10069300D004D003D002D001D000D0D0D082D083F8
:0506A300D0F0D0E032B0
:1006E900E4F587759850758920758BFD758DFDC268
:0806F900ABD28ED2AFD2AC22CD
:0E072800EF4E6009007D061DED60F580FAEFD2
:0107360022A0
:04073D00020C001496
:1005A300758911E4F58BF58DD2A0120728C2A0300E
:1005B300A1FDD28E20A1FDC28EAF8DEFFEAD8B7C4F
:1005C30000E42DFDEC3EFCE41202C97B967A4379EC
:1005D3000B783D12011EE4FBFAF97840120227E47E
:1005E300FBFA7980783F12002D1203028E0E8F0FD3
:1005F300D3E50D950FE50C950E400A1200037FE835
:060603007E0312000E222E
:1000260002036EE86480F8E933E83360110460F097
:10003600ED33EC337009E8FCE9FDEAFEEBFF220440
:1000460060DED3EB9FEA9EE99DE8C2E78CF0C2F73B
:1000560095F0400CE8CCF8E9CDF9EACEFAEBCFFB07
:1000660012033985D0F05804700320D5B3E8047024
:10007600075002B2D502037892D5EC0460F7E4CCBF
:10008600C0E0C398F8603B94186008400DD0E0FBD0
:10009600020350E4FBFAC9FC8028E830E406E4C910
:1000A600FBE4CAFCE830E305E4C9CACBFCE8540724
:1000B6006010F8C3E913F9EA13FAEB13FBEC13FC2F
:1000C600D8F130F52FC3E49CFCEF9BFFEE9AFEEDD2
:1000D60099FDD0E0FBEF4E4D4C701222DB0302037C
:1000E60075EC2CFCEF33FFEE33FEED33FDED30E720
:1000F600EB020350EF2BFFEE3AFEED39FDD0E0FBAD
:1001060050130BBB0003020378ED13FDEE13FEEF55
:0801160013FFEC13FC0203507F
:10011E00EC4D6011E8497017ED33EC3304600DE4DB
:10012E00FCFFFEFD22E933E8330470F802036E1281
:10013E00033958046009E4CC248150062850090282
:10014E000378284003020375C0E0EB4A7044B9807F
:10015E0006D0E0FB020364EF4E701CBD8008EBFF7F
:10016E00EAFEE9FD80EBE98DF0A4FEE5F002020760
:10017E00E9CDF9EAFEEBFFEF89F0A4FCE5F0CE89BC
:10018E00F0A42EFFE435F0CD89F0A42DFEE435F079
:10019E008067EF4E7005BD80D780C3EF8BF0A4ACA7
:1001AE00F0EE8BF0A42CFCE435F0F8EF8AF0A42CE2
:1001BE00E5F038FCE433CB8DF0A42CFCE5F03BF8F5
:1001CE00EE8AF0A42CFCE5F038F8E433CF89F0A4E5
:1001DE002CFCE5F038CF3400CE89F0A42FFFE5F0EB
:1001EE003EFEE433C98DF0A42EFEE5F039CD8AF043
:1001FE00A42FFFE5F03EFEE43DFD33D0E0FB5007BB
:10020E000BBB000F020378EC2CFCEF33FFEE33FE3A
:06021E00ED33FD02035068
:10022400020378EC5D046005E85904700302036E70
:10023400120339580460F6EC4860F2EC7004FDFED9
:10024400FF22C860DB2481C85009C39860025006AD
:100254000203759850CAF582E9294B4A7005AB82AE
:1002640002036475F0007C1A7880C3EF9BEE9AED6C
:1002740099400DC3EF9BFFEE9AFEED99FDE842F025
:10028400DC23ACF0D0E0FFD0E0FED0E0FDAB822078
:10029400E7101BEB60BAEC2CFCEF33FFEE33FEED02
:1002A40033FD020350E803F830E705C0F075F000B1
:1002B400EF2FFFEE33FEED33FD40B830E7C280AAE6
:1002C40075F020800E75F010800575F0087D007EB5
:1002D400007F003392D530D503120383EC334010F2
:1002E400EF33FFEE33FEED33FDEC33FCD5F0ED22BE
:0E02F400E5F0247EA2D513CC92E7CDCEFF22FA
:10030200EDD2E7CD33EC3392D524814006E4FFFEF3
:10031200FDFC22FCE4CFCECDCC24E0501174FF8052
:10032200EDC3CC13CCCD13CDCE13CECF13CF0470EF
:07033200F030D5DE02038369
:10033900E9D2E7C933E833F892D5EDD2E7CD33EC0A
:0703490033FC5002B2D52283
:10035000EC30E7100FBF000C0EBE00080DBD00040E
:100360000BEB6014A2D5EB13FCED92E7FD2274FFBA
:10037000FCFDFEFF22E480F8A2D574FF13FC7D8013
:03038000E480EF27
:03000000020517DF
:0C051700787FE4F6D8FD75811202055EC5
:0E038300C3E49FFFE49EFEE49DFDE49CFC228B
:10052300020718E493A3F8E493A34003F68001F2CF
:1005330008DFF48029E493A3F85407240CC8C333D9
:10054300C4540F4420C8834004F456800146F6DFA8
:10055300E4800B0102040810204080900737E47EFA
:10056300019360BCA3FF543F30E509541FFEE4939D
:10057300A360010ECF54C025E060A840B8E493A364
:10058300FAE493A3F8E493A3C8C582C8CAC583CA8F
:10059300F0A3C8C582C8CAC583CADFE9DEE780BE47
:0107410000B7
:00000001FF
