:1000660012004F7D197C007F147E0012008280F3FF
:0A0082008F088D091200960200A5F8
:0A008C008F088D0912009B0200AAE4
:060003001200A00200AF94
:05009600C291D294228A
:05009B00D291C2942285
:0500A000C291C2942290
:0500A500D293C2942279
:0500AA00C293D2942274
:0500AF00C293C294227F
:10004F005389F0438901758AA4758CFFC28DD28CB8
:07005F00D2A9D2AFC2B92201
:03000B0002000EE2
:10000E00C0E0C0D0758AA4758CFF050A050BE50A01
:10001E00D395085004D2908002C290E50BD3950977
:10002E005004D2958002C295E50AC39464400375CC
:10003E000A00E50BC394644003750B00D0D0D0E0EA
:01004E00327F
:0300000002007685
:0C007600787FE4F6D8FD75810B0200666F
:00000001FF
